{
  "_format": "hh-sol-artifact-1",
  "contractName": "HealthApp",
  "sourceName": "contracts/health.sol",
  "abi": [
    {
      "inputs": [],
      "stateMutability": "nonpayable",
      "type": "constructor"
    },
    {
      "inputs": [
        {
          "internalType": "address",
          "name": "",
          "type": "address"
        }
      ],
      "name": "balances",
      "outputs": [
        {
          "internalType": "uint256",
          "name": "",
          "type": "uint256"
        }
      ],
      "stateMutability": "view",
      "type": "function"
    },
    {
      "inputs": [
        {
          "internalType": "address",
          "name": "user",
          "type": "address"
        }
      ],
      "name": "getBalance",
      "outputs": [
        {
          "internalType": "uint256",
          "name": "",
          "type": "uint256"
        }
      ],
      "stateMutability": "view",
      "type": "function"
    },
    {
      "inputs": [],
      "name": "getMemos",
      "outputs": [
        {
          "components": [
            {
              "internalType": "string",
              "name": "name",
              "type": "string"
            },
            {
              "internalType": "string",
              "name": "message",
              "type": "string"
            },
            {
              "internalType": "uint256",
              "name": "timestamp",
              "type": "uint256"
            },
            {
              "internalType": "address",
              "name": "from",
              "type": "address"
            },
            {
              "internalType": "uint256",
              "name": "amount",
              "type": "uint256"
            }
          ],
          "internalType": "struct HealthApp.Memo[]",
          "name": "",
          "type": "tuple[]"
        }
      ],
      "stateMutability": "view",
      "type": "function"
    },
    {
      "inputs": [
        {
          "internalType": "string",
          "name": "name",
          "type": "string"
        },
        {
          "internalType": "string",
          "name": "message",
          "type": "string"
        }
      ],
      "name": "main",
      "outputs": [],
      "stateMutability": "payable",
      "type": "function"
    },
    {
      "inputs": [
        {
          "internalType": "uint256",
          "name": "",
          "type": "uint256"
        }
      ],
      "name": "memos",
      "outputs": [
        {
          "internalType": "string",
          "name": "name",
          "type": "string"
        },
        {
          "internalType": "string",
          "name": "message",
          "type": "string"
        },
        {
          "internalType": "uint256",
          "name": "timestamp",
          "type": "uint256"
        },
        {
          "internalType": "address",
          "name": "from",
          "type": "address"
        },
        {
          "internalType": "uint256",
          "name": "amount",
          "type": "uint256"
        }
      ],
      "stateMutability": "view",
      "type": "function"
    }
  ],
  "bytecode": "0x608060405234801561001057600080fd5b5033600160006101000a81548173ffffffffffffffffffffffffffffffffffffffff021916908373ffffffffffffffffffffffffffffffffffffffff160217905550611079806100616000396000f3fe60806040526004361061004a5760003560e01c806327e235e31461004f578063865c51721461008c578063a77241ed146100b7578063e8dfdf04146100d3578063f8b2cb4f14610114575b600080fd5b34801561005b57600080fd5b50610076600480360381019061007191906107fe565b610151565b6040516100839190610844565b60405180910390f35b34801561009857600080fd5b506100a1610169565b6040516100ae9190610a4c565b60405180910390f35b6100d160048036038101906100cc9190610ad3565b610356565b005b3480156100df57600080fd5b506100fa60048036038101906100f59190610b80565b6105d7565b60405161010b959493929190610c06565b60405180910390f35b34801561012057600080fd5b5061013b600480360381019061013691906107fe565b61074d565b6040516101489190610844565b60405180910390f35b60026020528060005260406000206000915090505481565b60606000805480602002602001604051908101604052809291908181526020016000905b8282101561034d57838290600052602060002090600502016040518060a00160405290816000820180546101c090610c96565b80601f01602080910402602001604051908101604052809291908181526020018280546101ec90610c96565b80156102395780601f1061020e57610100808354040283529160200191610239565b820191906000526020600020905b81548152906001019060200180831161021c57829003601f168201915b5050505050815260200160018201805461025290610c96565b80601f016020809104026020016040519081016040528092919081815260200182805461027e90610c96565b80156102cb5780601f106102a0576101008083540402835291602001916102cb565b820191906000526020600020905b8154815290600101906020018083116102ae57829003601f168201915b50505050508152602001600282015481526020016003820160009054906101000a900473ffffffffffffffffffffffffffffffffffffffff1673ffffffffffffffffffffffffffffffffffffffff1673ffffffffffffffffffffffffffffffffffffffff1681526020016004820154815250508152602001906001019061018d565b50505050905090565b60003411610399576040517f08c379a000000000000000000000000000000000000000000000000000000000815260040161039090610d13565b60405180910390fd5b600160009054906101000a900473ffffffffffffffffffffffffffffffffffffffff1673ffffffffffffffffffffffffffffffffffffffff166108fc349081150290604051600060405180830381858888f19350505050158015610401573d6000803e3d6000fd5b5034600260003373ffffffffffffffffffffffffffffffffffffffff1673ffffffffffffffffffffffffffffffffffffffff16815260200190815260200160002060008282546104519190610d62565b9250508190555060006040518060a0016040528086868080601f016020809104026020016040519081016040528093929190818152602001838380828437600081840152601f19601f82011690508083019250505050505050815260200184848080601f016020809104026020016040519081016040528093929190818152602001838380828437600081840152601f19601f8201169050808301925050505050505081526020014281526020013373ffffffffffffffffffffffffffffffffffffffff168152602001348152509080600181540180825580915050600190039060005260206000209060050201600090919091909150600082015181600001908161055d9190610f71565b5060208201518160010190816105739190610f71565b506040820151816002015560608201518160030160006101000a81548173ffffffffffffffffffffffffffffffffffffffff021916908373ffffffffffffffffffffffffffffffffffffffff16021790555060808201518160040155505050505050565b600081815481106105e757600080fd5b906000526020600020906005020160009150905080600001805461060a90610c96565b80601f016020809104026020016040519081016040528092919081815260200182805461063690610c96565b80156106835780601f1061065857610100808354040283529160200191610683565b820191906000526020600020905b81548152906001019060200180831161066657829003601f168201915b50505050509080600101805461069890610c96565b80601f01602080910402602001604051908101604052809291908181526020018280546106c490610c96565b80156107115780601f106106e657610100808354040283529160200191610711565b820191906000526020600020905b8154815290600101906020018083116106f457829003601f168201915b5050505050908060020154908060030160009054906101000a900473ffffffffffffffffffffffffffffffffffffffff16908060040154905085565b6000600260008373ffffffffffffffffffffffffffffffffffffffff1673ffffffffffffffffffffffffffffffffffffffff168152602001908152602001600020549050919050565b600080fd5b600080fd5b600073ffffffffffffffffffffffffffffffffffffffff82169050919050565b60006107cb826107a0565b9050919050565b6107db816107c0565b81146107e657600080fd5b50565b6000813590506107f8816107d2565b92915050565b60006020828403121561081457610813610796565b5b6000610822848285016107e9565b91505092915050565b6000819050919050565b61083e8161082b565b82525050565b60006020820190506108596000830184610835565b92915050565b600081519050919050565b600082825260208201905092915050565b6000819050602082019050919050565b600081519050919050565b600082825260208201905092915050565b60005b838110156108c55780820151818401526020810190506108aa565b60008484015250505050565b6000601f19601f8301169050919050565b60006108ed8261088b565b6108f78185610896565b93506109078185602086016108a7565b610910816108d1565b840191505092915050565b6109248161082b565b82525050565b610933816107c0565b82525050565b600060a083016000830151848203600086015261095682826108e2565b9150506020830151848203602086015261097082826108e2565b9150506040830151610985604086018261091b565b506060830151610998606086018261092a565b5060808301516109ab608086018261091b565b508091505092915050565b60006109c28383610939565b905092915050565b6000602082019050919050565b60006109e28261085f565b6109ec818561086a565b9350836020820285016109fe8561087b565b8060005b85811015610a3a5784840389528151610a1b85826109b6565b9450610a26836109ca565b925060208a01995050600181019050610a02565b50829750879550505050505092915050565b60006020820190508181036000830152610a6681846109d7565b905092915050565b600080fd5b600080fd5b600080fd5b60008083601f840112610a9357610a92610a6e565b5b8235905067ffffffffffffffff811115610ab057610aaf610a73565b5b602083019150836001820283011115610acc57610acb610a78565b5b9250929050565b60008060008060408587031215610aed57610aec610796565b5b600085013567ffffffffffffffff811115610b0b57610b0a61079b565b5b610b1787828801610a7d565b9450945050602085013567ffffffffffffffff811115610b3a57610b3961079b565b5b610b4687828801610a7d565b925092505092959194509250565b610b5d8161082b565b8114610b6857600080fd5b50565b600081359050610b7a81610b54565b92915050565b600060208284031215610b9657610b95610796565b5b6000610ba484828501610b6b565b91505092915050565b600082825260208201905092915050565b6000610bc98261088b565b610bd38185610bad565b9350610be38185602086016108a7565b610bec816108d1565b840191505092915050565b610c00816107c0565b82525050565b600060a0820190508181036000830152610c208188610bbe565b90508181036020830152610c348187610bbe565b9050610c436040830186610835565b610c506060830185610bf7565b610c5d6080830184610835565b9695505050505050565b7f4e487b7100000000000000000000000000000000000000000000000000000000600052602260045260246000fd5b60006002820490506001821680610cae57607f821691505b602082108103610cc157610cc0610c67565b5b50919050565b7f506c656173652073656e6420736f6d6520657468657200000000000000000000600082015250565b6000610cfd601683610bad565b9150610d0882610cc7565b602082019050919050565b60006020820190508181036000830152610d2c81610cf0565b9050919050565b7f4e487b7100000000000000000000000000000000000000000000000000000000600052601160045260246000fd5b6000610d6d8261082b565b9150610d788361082b565b9250828201905080821115610d9057610d8f610d33565b5b92915050565b7f4e487b7100000000000000000000000000000000000000000000000000000000600052604160045260246000fd5b60008190508160005260206000209050919050565b60006020601f8301049050919050565b600082821b905092915050565b600060088302610e277fffffffffffffffffffffffffffffffffffffffffffffffffffffffffffffffff82610dea565b610e318683610dea565b95508019841693508086168417925050509392505050565b6000819050919050565b6000610e6e610e69610e648461082b565b610e49565b61082b565b9050919050565b6000819050919050565b610e8883610e53565b610e9c610e9482610e75565b848454610df7565b825550505050565b600090565b610eb1610ea4565b610ebc818484610e7f565b505050565b5b81811015610ee057610ed5600082610ea9565b600181019050610ec2565b5050565b601f821115610f2557610ef681610dc5565b610eff84610dda565b81016020851015610f0e578190505b610f22610f1a85610dda565b830182610ec1565b50505b505050565b600082821c905092915050565b6000610f4860001984600802610f2a565b1980831691505092915050565b6000610f618383610f37565b9150826002028217905092915050565b610f7a8261088b565b67ffffffffffffffff811115610f9357610f92610d96565b5b610f9d8254610c96565b610fa8828285610ee4565b600060209050601f831160018114610fdb5760008415610fc9578287015190505b610fd38582610f55565b86555061103b565b601f198416610fe986610dc5565b60005b8281101561101157848901518255600182019150602085019450602081019050610fec565b8683101561102e578489015161102a601f891682610f37565b8355505b6001600288020188555050505b50505050505056fea26469706673582212200b58f898a4f8a7b3dc9c1dbba77a9bac562cc203489b3a215141e8b56283920164736f6c63430008180033",
  "linkReferences": {},
  "deployedLinkReferences": {}
}